:100000000C941F010C9476020C943C010C943C015E
:100010000C943C010C943C010C943C010C943C016C
:100020000C943C010C943C010C943C010C943C015C
:100030000C943C010C943C010C943C010C943C014C
:100040000C943C010C943C010C943C010C943C013C
:100050000C943C018201840180017E0184018401B1
:100060008401840184018401840184018401840168
:100070008401840184018401840184018401840158
:100080008401840184018401840184018401840148
:100090008401840184018401840184018401840138
:1000A0008401840184018401840184018401840128
:1000B0008401840184018401840184018401840118
:1000C0008401840184018401840184017C01840110
:1000D000840184017A01840178017601840184011C
:1000E00084018401840184018401840184018401E8
:1000F00084018401840184018401840184018401D8
:1001000084018401840184018401840174018401D7
:10011000840184017201840170016E0184018401F3
:100120008401840184018401840184016C018401BF
:10013000840184016A018401680186016E616E0098
:10014000696E660000407A10F35A00A0724E1809DA
:100150000010A5D4E80000E87648170000E40B542E
:10016000020000CA9A3B000000E1F50500008096FD
:100170009800000040420F000000A086010000002F
:10018000102700000000E8030000000064000000E9
:1001900000000A00000000000100000000002C76B2
:1001A000D888DC674F0823DFC1DFAE59E1B1B796CD
:1001B000E5E3E453C63AE651997696E8E6C284262A
:1001C000EB898C9B62ED407C6FFCEFBC9C9F40F206
:1001D000BAA56FA5F490055A2AF75C936B6CF96782
:1001E0006DC11BFCE0E40D47FEF520E6B500D0ED47
:1001F000902E0300943577050080841E08000020AF
:100200004E0A000000C80C333333330F986E12834C
:100210001141EF8D2114893BE65516CFFEE6DB1820
:10022000D1844B381BF77C1D901DA4BBE4242032E5
:1002300084725E228100C9F124ECA1E53D271124DE
:100240001FBECFE5D8E0DEBFCDBF10E0A0E6B0E036
:10025000E4EAF5E102C005900D92AE36B107D9F798
:1002600020E0AEE6B0E001C01D92A438B207E1F78D
:100270000E94D4020C94D00A0C940000860F971FA1
:100280000895861B970B08959C01269FC001279F08
:10029000900D369F900D112408950E94D306CB0136
:1002A00008952FE02ABB90EF9BBB89B39ABB2BBB71
:1002B00039B32ABB9BBB832B089590E0FC01EB571D
:1002C000F109E437F10500F5E65DFF4F0C94E70610
:1002D00082E3089583E3089584E3089585E3089510
:1002E00086E3089587E3089588E3089589E30895F0
:1002F00080E308958DE308958BE208958DE20895DB
:100300008AE208958FE2089584E4089581E30895D0
:1003100085BB939A89EF90E00197F1F700C0000048
:10032000939889EF90E00197F1F700C000000895DD
:100330009598949881E00E94880108958FEF84BB7E
:1003400015BA81B3886381BB82B3877C82BB88E3A3
:100350000E9488010E9498018CE00E94880186E03A
:100360000E9488010895959A94980E9488010895A2
:10037000CF93DF93EC018881882331F021960E948E
:10038000B30189918111FBCFDF91CF910895CF9374
:10039000DF93FC01643421F410926E001082A3C03C
:1003A00080916E0091E0980F90936E00DF01A80F8E
:1003B000B11D6C9381E096ED960F923008F080E0CD
:1003C000EF01811108C081E0962F9D7F9D3209F0D9
:1003D00080E08823D9F060937E0080916E00815088
:1003E00080936E00FE01E80FF11D1082CE010E9485
:1003F000580790937A008093790010926E00809154
:100400006E00FE01E80FF11D10826DC06D3309F022
:100410006AC080916E00815080936E00FE01E80FEB
:10042000F11D1082CE010E94580790937D008093A9
:100430007C0010926E0080916E00FE01E80FF11DAD
:10044000108280917E008B3249F018F48A3221F1BB
:100450004AC08D3291F08F3271F145C060917C00BD
:1004600070917D008091790090917A000E943E0108
:1004700090937A008093790036C060917C007091EF
:100480007D008091790090917A000E9441019093C3
:100490007A008093790027C060917C0070917D0084
:1004A0008091790090917A000E94440190937A00A3
:1004B0008093790018C060917C0070917D008091DC
:1004C000790090917A000E944D01BC01990F880B30
:1004D000990B0E941C0360938000709381008093AD
:1004E000820090938300DF91CF9108951F920F9225
:1004F0000FB60F9211242F933F934F935F936F93F7
:100500007F938F939F93AF93BF93EF93FF93CF937B
:10051000DF93CDB7DEB72597DEBFCDBF0E94510177
:1005200080937F0080917F0090E00E945D01809326
:100530007F0060917F008E8190E00E94C7018091D2
:100540007B008F5F80937B000F900F900F900F9038
:100550000F90DF91CF91FF91EF91BF91AF919F915C
:100560008F917F916F915F914F913F912F910F905C
:100570000FBE0F901F90189511BA8FEF82BB8FE0BE
:100580008ABB80EF8BBB85B7826085BF8BB78064E9
:100590008BBF8AB780648ABF78940E949E0180E6F0
:1005A00090E00E94B80108950E94BC0280917B00F7
:1005B0008823E1F30E94980180917F000E94B3019B
:1005C00080917F00843419F40E94980130C080919A
:1005D0007F008D3361F50E94980180917E008F32FB
:1005E000B1F46091800070918100809182009091BF
:1005F00083000FE610E022E030E043E050E00E948C
:1006000038070E949801C8010E94B80110C080916B
:10061000790090917A004AE050E06FE670E00E9425
:1006200064080E9498018FE690E00E94B801109241
:100630007B00BCCFE89409C097FB3EF49095809571
:10064000709561957F4F8F4F9F4F9923A9F0F92F98
:1006500096E9BB279395F695879577956795B79516
:10066000F111F8CFFAF4BB0F11F460FF1BC06F5FFC
:100670007F4F8F4F9F4F16C0882311F096E911C00E
:10068000772321F09EE8872F762F05C0662371F02F
:1006900096E8862F70E060E02AF09A95660F771F43
:1006A000881FDAF7880F9695879597F90895A3E143
:1006B000B0E0EDE5F3E00C94ED066C014B012A018E
:1006C000FC0117821682838181FF43C3AE014F5F15
:1006D0005F4F3A01F6019381F40193FD859193FFF9
:1006E00081914F01882309F430C3853239F493FD99
:1006F000859193FF81914F01853239F4B60190E0E5
:100700000E949C0852012501E5CF10E0F12C20E069
:100710002032A0F48B3269F030F4803259F0833209
:1007200069F420612CC08D3239F0803339F42160B6
:1007300026C02260246023C0286021C027FD27C076
:1007400030ED380F3A3078F426FF06C0FAE01F9FEC
:10075000300D1124132F13C04AE0F49E300D1124E4
:10076000F32E20620CC08E3221F426FDEEC22064EE
:1007700006C08C3611F4206802C0883641F4F401BA
:1007800093FD859193FF81914F018111C1CF9BEB27
:10079000980F933018F42061805E06C09BE9980F93
:1007A000933008F071C12F7E26FF16E02F73322E92
:1007B000853619F42064322E08C0863621F4F22FD3
:1007C000F0683F2E02C01111115037FE07C01C33D4
:1007D00050F4EE24E394E10E27E00BC0183038F01B
:1007E00027E017E005C027E04CE3E42E02C0212FEC
:1007F000E12C520144E0A40EB11CF2016081718130
:10080000828193810E2DA3010E9476072C0109811C
:1008100000FF02C003FF07C031FC08C032FE09C060
:1008200030E2232E07C02DE2222E04C09BE2292EA7
:1008300001C0212C802F8C7019F0211068C2A8C231
:1008400037FE0FC0E40C04FF04C08A81813309F431
:10085000EA941E1474F5F8E0FE1578F588E0E82EA9
:100860002CC036FC2AC0812F90E0841595059CF0A1
:100870002CEF42162FEF520674F0432D4068342EB1
:100880000AC0E2E0F0E0EC0FFD1FE10FF11D8081F6
:10089000803319F411501111F4CF37FE0EC0EE243D
:1008A000E394E10E812F90E0481659062CF41419B8
:1008B00004C0EE24E39401C010E037FE06C0141417
:1008C000150434F4C201019605C085E090E002C031
:1008D00081E090E021100196112331F0212F30E0CA
:1008E0002F5F3F4F820F931F2F2D30E0821793070A
:1008F00014F4F81A01C0F12C832D897049F4FF20FB
:1009000039F0B60180E290E00E949C08FA94F7CF9B
:10091000222029F0B601822D90E00E949C0833FC31
:1009200009C0FF2039F0B60180E390E00E949C08E6
:10093000FA94F7CF37FE5AC0942D852D57FE02C08A
:1009400090E080E0292E382E20E030E0A2014E1900
:1009500051095D874C87A201421953095F874E8771
:10096000612F70E044275527461B570B598B488B46
:100970005FEF2516350649F4B6018EE290E02A8B2A
:100980003B8B0E949C083B892A89421453046CF0DB
:100990004C855D854215530544F4EE85FF85E20FD5
:1009A000F31FE60DF71D818101C080E351E0251A98
:1009B00031082F5F3F4F48895989241635064CF07E
:1009C000B60190E02A8B3B8B0E949C082A893B89C8
:1009D000CFCF2414350439F49A81963318F4953323
:1009E00011F404FF81E3B60190E04BC08A818133AA
:1009F00009F00F7EB60190E00E949C08111105C01D
:100A000034FC18C085E690E017C0B6018EE290E095
:100A10000E949C0882E0EE24E394E80EF301E80FC4
:100A2000F11D8081B60190E00E949C0811508E2D2E
:100A300091F7E6CF85E490E0B6010E949C0857FC50
:100A400005C04114510439F404FF05C05194419488
:100A500051088DE201C08BE2B60190E00E949C0833
:100A600080E39AE0491651042CF08F5F5AE0451A52
:100A70005108F7CFB60190E00E949C08B601C20170
:100A8000C0960E949C0857C1833631F0833779F0B5
:100A9000833509F058C021C05201E2E0AE0EB11C0E
:100AA000F2018081898301E010E0230114C052012A
:100AB000F2E0AF0EB11CF2014080518026FF03C06E
:100AC000612F70E002C06FEF7FEFC2012A8B0E949E
:100AD00059088C012A892F7715C05201F2E0AF0E18
:100AE000B11CF2014080518026FF03C0612F70E0ED
:100AF00002C06FEF7FEFC2012A8B0E944E088C016B
:100B00002A892068322E23FD1AC08F2D90E0081705
:100B10001907A8F4B60180E290E00E949C08FA94BC
:100B2000F4CFF20137FC859137FE81912F01B60198
:100B300090E00E949C08F110FA94015011090115EF
:100B4000110579F7F8C0843611F0893659F552014C
:100B500027FF09C0F4E0AF0EB11CF2016081718182
:100B6000828193810AC0F2E0AF0EB11CF201608174
:100B70007181072E000C880B990B2F76322E97FF70
:100B800009C090958095709561957F4F8F4F9F4FCD
:100B90002068322E2AE030E0A3010E94D408E82E1B
:100BA000E6183FC0022F853721F40F7E2AE030E09F
:100BB0001DC0097F8F3691F018F4883559F0C5C0F3
:100BC000803719F0883711F0C0C0006104FF09C0F8
:100BD000046007C024FF08C0066006C028E030E0BB
:100BE00005C020E130E002C020E132E0520107FF01
:100BF00009C0F4E0AF0EB11CF20160817181828105
:100C0000938108C0F2E0AF0EB11CF20160817181E6
:100C100080E090E0A3010E94D408E82EE6180F7748
:100C2000302E36FE0BC0332D3E7FE11650F434FEDD
:100C30000AC032FC08C0332D3E7E05C00E2D332D78
:100C400003C00E2D01C0012F34FF0CC0FE01EE0DBC
:100C5000F11D8081803311F4397E08C032FF05C058
:100C60000E5F04C0832F867809F00F5F33FD13C039
:100C700030FF06C01E2D0F1518F41F0D101B0F2D71
:100C80000F1568F4B60180E290E03B8B0E949C084F
:100C90000F5F3B89F5CF0F1510F4F01A01C0F12C4E
:100CA00034FF12C0B60180E390E03B8B0E949C08A9
:100CB0003B8932FF17C031FD03C088E790E002C0D6
:100CC00088E590E0B6010CC0832F867859F031FF9B
:100CD00002C08BE201C080E237FD8DE2B60190E0F8
:100CE0000E949C08E11638F4B60180E390E00E946F
:100CF0009C081150F7CFEA94F301EE0DF11D8081AD
:100D0000B60190E00E949C08E110F5CF14C0F4E019
:100D1000FF1558F584E0F81A33FE1EC0211026C0D6
:100D200003FF2AC00CE311E0F32DF0713F2EF80110
:100D30008491811124C0FF2009F4E5CCB60180E242
:100D400090E00E949C08FA94F6CFF6018681978184
:100D500026C08FEF9FEF23C0B60180E290E00E9493
:100D60009C08FA94F110F8CFD9CFF12CB601822D5E
:100D700090E00E949C08D4CF00E411E0D5CF311060
:100D80008052B60190E00E949C080F5F1F4FCFCFAA
:100D900023E02F1510F483E0BECFF12CC1CF639672
:100DA000E2E10C94090797FB072E16F4009407D094
:100DB00077FD09D00E94240707FC05D03EF49095EA
:100DC00081959F4F0895709561957F4F0895EE0F1F
:100DD000FF1F0590F491E02D09942F923F924F92BE
:100DE0005F926F927F928F929F92AF92BF92CF92BB
:100DF000DF92EF92FF920F931F93CF93DF93CDB7C4
:100E0000DEB7CA1BDB0B0FB6F894DEBF0FBECDBF3B
:100E100009942A88398848885F846E847D848C840C
:100E20009B84AA84B984C884DF80EE80FD800C8115
:100E30001B81AA81B981CE0FD11D0FB6F894DEBFF8
:100E40000FBECDBFED010895AA1BBB1B51E107C02A
:100E5000AA1FBB1FA617B70710F0A61BB70B881F4A
:100E6000991F5A95A9F780959095BC01CD010895D9
:100E7000EF920F931F93CF93DF93E80147FD02C0DA
:100E800034E001C034E1E42F440FFF0BF7FF03C04F
:100E9000F195E195F109E32E022F2E2FAE010E946C
:100EA0003209CE01DF91CF911F910F91EF900895FC
:100EB000FC0188279927E89421912032E9F3293011
:100EC00010F02E30C8F32B3241F02D3239F46894F3
:100ED00004C00E947A08820F911D219120532A306C
:100EE000C0F31EF4909581959F4F0895283008F027
:100EF00027E03327DA01990F311D87FD91600096B5
:100F00006105710539F432602E5F3D9330E32A9517
:100F1000E1F708959F3F30F080387105610509F0D1
:100F20003C5F3C5F3D93913008F08068911DDF93FA
:100F3000CF931F930F93FF92EF92192F987F96955F
:100F4000E92F96959695E90FFF27E256FE4F9927D0
:100F50003327EE24FF24A701E701059008940794A6
:100F600028F4360FE71EF81E491F511D660F771F24
:100F7000881F991F0694A1F70590079428F4E70E9F
:100F8000F81E491F561FC11D770F881F991F661F26
:100F90000694A1F70590079428F4F80E491F561FF0
:100FA000C71FD11D880F991F661F771F0694A1F7D1
:100FB0000590079420F4490F561FC71FD81F990F9B
:100FC000661F771F881F0694A9F7849110951770E4
:100FD00041F0D695C79557954795F794E7941A959C
:100FE000C1F7E4E4F1E068941590159135916591AD
:100FF000959105907FE27395E118F10A430B560B2A
:10100000C90BD009C0F7E10CF11E431F561FC91FC1
:10101000D01D7EF4703311F48A95E6CFE894015028
:1010200030F0080F0AF40027021708F4202F239548
:10103000022F7A3328F079E37D932A95E9F710C0DF
:101040007D932A9589F60694979567953795179518
:101050001794E118F10A430B560BC90BD00998F00D
:1010600023957E9173957A3308F070E37C93201377
:10107000B8F77E9170617D9330F0839571E37D9335
:1010800070E32A95E1F71124EF90FF900F911F91E3
:10109000CF91DF91992787FD90950895FC010590E8
:1010A000615070400110D8F7809590958E0F9F1F6A
:1010B0000895FC016150704001900110D8F78095AF
:1010C00090958E0F9F1F08954532510520F44230B0
:1010D00010F00C946F08FB011082CB010895BB2720
:1010E0004A3031F4992322F4BDE2909581959F4FC7
:1010F0000C9483087AE0979F902D879F802D910D07
:1011000011240895BB27FB015527AA27880F991F93
:10111000AA1FA41710F0A41B83955051B9F7A05D26
:10112000AA3308F0A95DA193009779F7B111B193A3
:101130001192CB010C94C00A0F931F93CF93DF93AE
:10114000FB01238121FD03C08FEF9FEF28C022FF09
:1011500016C046815781248135814217530744F4D4
:10116000A081B1819D012F5F3F4F318320838C93FC
:10117000268137812F5F3F4F3783268310C0EB01D5
:10118000092F182F0084F185E02D0995892BE1F6B0
:101190008E819F8101969F838E83812F902FDF9177
:1011A000CF911F910F910895FA01AA27283051F18C
:1011B000203181F1E8946F936E7F6E5F7F4F8F4F88
:1011C0009F4FAF4FB1E03ED0B4E03CD0670F781FE7
:1011D000891F9A1FA11D680F791F8A1F911DA11DCC
:1011E0006A0F711D811D911DA11D20D009F4689405
:1011F0003F912AE0269F11243019305D3193DEF6AD
:10120000CF010895462F4770405D4193B3E00FD062
:10121000C9F7F6CF462F4F70405D4A3318F0495D4D
:1012200031FD4052419302D0A9F7EACFB4E0A69530
:101230009795879577956795BA95C9F70097610552
:10124000710508959B01AC010A2E069457954795A8
:1012500037952795BA95C9F7620F731F841F951F9D
:10126000A01D08954F925F926F927F929F92AF92CE
:10127000BF92CF92DF92EF92FF920F931F93CF9383
:10128000DF93CDB7DEB729970FB6F894DEBF0FBE58
:10129000CDBF6A01122FB02E2BE3201720F0FF24C0
:1012A000F394F00E02C0BCE3FB2E0F2D27E0AE013D
:1012B0004F5F5F4F0E947607AC018981982F99702C
:1012C000913031F0E1FC06C0E0FE06C090E205C0BE
:1012D0009DE203C09BE201C090E0EE2DE07183FF30
:1012E0003CC0911102C083E001C084E0811718F472
:1012F000212F281B01C020E0E1110BC0F601822F35
:1013000030E2882319F031938150FBCFC20ED11CFB
:1013100020E0992329F0D6019C93F60131966F01C4
:10132000C6010396E2FE0AC03EE4D6013C9341E4C6
:1013300011964C93119712963C9306C03EE6F60127
:10134000308341E641833283FC01322F40E2332374
:1013500009F442C041933150FACF82FF44C0911149
:1013600002C083E001C084E0811718F4212F281BFC
:1013700001C020E0E1110BC0F601822F30E288238A
:1013800019F031938150FBCFC20ED11C20E099237C
:1013900029F0D6019C93F60131966F01C6010396A0
:1013A000E2FE0BC039E4D6013C933EE411963C9337
:1013B000119736E412963C9307C039E6F601308364
:1013C0003EE6318336E63283FC01322F40E233239E
:1013D00019F041933150FBCFFC01E20FF11D108257
:1013E0008EEF9FEFB7C0F1E0911101C0F0E06F2FD9
:1013F00070E01416150624F49A012F5F3F4F02C0C7
:1014000021E030E0260F371FBB2029F06B2D70E064
:101410006F5F7F4F02C060E070E0260F371F612FC3
:1014200070E0261737071CF4121B212F01C020E0A3
:101430003E2D387159F4D601322F60E2332319F072
:101440006D933150FBCFC20ED11C20E0FF2331F051
:10145000D6019C93B6016F5F7F4F6B01E1110BC00A
:10146000F601922F30E3992319F031939150FBCF7D
:10147000C20ED11C20E09F2D940F3A81782F7071FD
:10148000A72E84FF03C0313309F49150191624F4B8
:10149000993018F098E001C091E0E42F852F57FFB4
:1014A00002C0E0E080E06E2F782FE0E0F0E0AEE2F6
:1014B0009A2E3A01691A71082A01461A570A0B2D09
:1014C00010E01195019511096F3F8FEF780729F40E
:1014D000D6019C92C60101966C014617570784F00D
:1014E000661677066CF47F01E40CF51CA1E0B0E011
:1014F000AC0FBD1FEA0EFB1ED7011196BC9002C0B7
:1015000090E3B92E615071093196C60101967C01B4
:101510006017710724F0D601BC926C01D5CF641717
:10152000750741F4363320F4353321F4A11002C09D
:1015300081E3B82EF601B082F701822F90E2882372
:1015400019F091938150FBCFF701E20FF11D10824A
:1015500080E090E029960FB6F894DEBF0FBECDBFB5
:10156000DF91CF911F910F91FF90EF90DF90CF907F
:10157000BF90AF909F907F906F905F904F90089535
:10158000DC01FC01672F71917723E1F7329704C0EA
:101590007C916D9370836291AE17BF07C8F3089575
:0415A000F894FFCFED
:0E15A40020202043414C43554C41544F5200EF
:00000001FF
